:1000000009C055C120C0EFC01EC01DC01CC01BC010
:1000100014C119C011241FBECFE9CDBF10E0A0E666
:10002000B0E0E6ECF2E002C005900D92A236B10716
:10003000D9F720E0A2E6B0E001C01D92A836B207D1
:10004000E1F7AAD03EC1DCCF17BA18BA87B38170E6
:1000500087BBC19A8FB583688FBD83B7846083BF28
:1000600089B7826089BF85B7806385BF81B58061AC
:1000700081BD81B5816081BD81B5806481BD0895F8
:10008000B19B0FC081E090E00090640002C0880F37
:10009000991F0A94E2F790916300892B8093630083
:1000A0000FC081E090E00090640002C0880F991FAB
:1000B0000A94E2F78095909163008923809363000E
:1000C00080916400873020F48F5F8093640002C0C9
:1000D000109264006091630070E080E090E040E086
:1000E0009B01082E02C0359527950A94E2F72170EE
:1000F000420F01968830910599F78091610088231D
:1001000021F0433020F080E00895473028F091E05E
:1001100089278093610081E0089510926600109213
:1001200065008BB780648BBF85B7806285BF88957B
:1001300085B78F7D85BF8BB78F7B8BBF089581B5CA
:100140008F7B81BDF894B89A86B78F3F61F086B7F0
:100150008F5F86BF8FEF9CE70197F1F700C000002B
:1001600086B78F3FA1F778940895F89486B78823CF
:1001700061F086B7815086BF8FEF9CE70197F1F75A
:1001800000C0000086B78111F4CFB89881B58064B3
:1001900081BD7894C2DF089557DF78948FE097E2AD
:1001A0000197F1F700C000006BDF90916700890FA5
:1001B0008093670080916700873060F0109267003D
:1001C000109266001092650086B7882311F0CDDF8B
:1001D00001C0B5DF80916500909166008937910577
:1001E000E8F2C3DFDBCF1F920F920FB60F921124FC
:1001F0008F939F93809162008F5F8B3718F4809369
:10020000620014C0109262008091650090916600B7
:100210000196909366008093650080916700882323
:1002200029F0809167008150809367009F918F91A2
:100230000F900FBE0F901F9018951F920F920FB640
:100240000F9211242F933F934F935F936F937F935C
:100250008F939F93AF93BF93EF93FF93B19B09C08D
:10026000809160008A3018F48F5F8093600055DFC2
:100270000DC0809160008A3048F0109260005FDF0E
:100280008EE690E09093660080936500FF91EF9179
:10029000BF91AF919F918F917F916F915F914F919E
:1002A0003F912F910F900FBE0F901F9018951F92A6
:1002B0000F920FB60F9211240F900FBE0F901F9048
:0602C0001895F894FFCF31
:0202C6000A012B
:00000001FF
