S01800004763634170706C69636174696F6E32312E7372656328
S113000009C02CC120C000C11EC01DC01CC01BC023
S11300101AC019C011241FBECFE9CDBF10E0A0E65D
S1130020B0E0E4E7F2E002C005900D92A236B10719
S1130030D9F720E0A2E6B0E001C01D92A836B207CD
S1130040E1F760D015C1DCCF17BA18BAB998C19AD4
S11300508FB583688FBD83B7846083BF89B782609F
S113006089BF85B7806385BF0895B19B0FC081E0C8
S113007090E00090640002C0880F991F0A94E2F790
S113008090916300892B809363000FC081E090E01E
S11300900090640002C0880F991F0A94E2F78095CB
S11300A0909163008923809363008091640087307A
S11300B020F48F5F8093640002C01092640060910A
S11300C0630070E080E090E040E09B01082E02C0F5
S11300D0359527950A94E2F72170420F01968830EE
S11300E0910599F780916000882321F0433020F036
S11300F080E00895473028F091E0892780936000DC
S113010081E00895A1DF78948FE097E20197F1F7F9
S113011000C00000AADF90916700890F80936700F8
S1130120809167008730D8F11092670010926600C2
S11301301092650086B7882311F186B7882361F091
S113014086B7815086BF8FEF9CE70197F1F700C017
S1130150000086B78111F4CFB8981092660010920F
S113016065008BB780648BBF85B7806285BF889537
S113017085B78F7D85BF8BB78F7B8BBF10C0B89A37
S113018086B78F3F61F086B78F5F86BF8FEF9CE79E
S11301900197F1F700C0000086B78F3FA1F7809167
S11301A06500909166008937910550F5809165004E
S11301B0909166000B9708F4A7CF86B78111A4CF5E
S11301C01FC086B7815086BF8FEF9CE70197F1F778
S11301D000C0000086B78111F4CFB8981092660071
S11301E0109265008BB780648BBF85B7806285BF32
S11301F0889585B78F7D85BF8BB78F7B8BBF84CF69
S113020086B78111DECFE9CF1F920F920FB60F92FE
S113021011248F939F93809162008F5F8B3718F422
S11302208093620014C010926200809165009091E6
S11302306600019690936600809365008091670044
S1130240882329F0809167008150809367009F91F3
S11302508F910F900FBE0F901F9018951F920F92C1
S11302600FB60F9211240F900FBE0F901F90189588
S1070270F894FFCF2C
S1050274010083
S9030000FC
