:1000000009C0E1C020C088C01EC01DC01CC01BC0EC
:10001000A4C019C011241FBECFE9CDBF10E0A0E6D7
:10002000B0E0E0EFF1E002C005900D92A236B1071A
:10003000D9F720E0A2E6B0E001C01D92A536B207D4
:10004000E1F74DD0D3C0DCCFF89417BA18BAB998FD
:10005000C19A8FB583688FBD83B7846083BF16BE96
:1000600089B7826089BF85B7806385BF14BE88E188
:1000700081BD81E681BD789408951092640010924C
:1000800063008BB780648BBF85B7806285BF88951E
:1000900085B78F7D85BF0895B89A86B78F3F61F089
:1000A00086B78F5F86BF8FEF9CE70197F1F700C09F
:1000B000000086B78F3FA1F7089586B7882361F0C7
:1000C00086B7815086BF8FEF9CE70197F1F700C09C
:1000D000000086B78111F4CFB898CFDF0895B4DF60
:1000E0007894CBDF8091630090916400CD9708F401
:1000F000D3DF8091630090916400069720F01ABED0
:100100008BB780648BBF8091630090916400CD9722
:1001100048F3D3DFB2DFE6CF1F920F920FB60F92F4
:1001200011248F939F93809162008F5F8B3718F417
:10013000809362000BC010926200809163009091E6
:100140006400019690936400809363009F918F9167
:100150000F900FBE0F901F9018951F920F920FB621
:100160000F9211248F939F9381B5806481BD86B7D0
:10017000811122C084E690E0909364008093630034
:10018000B29B0AC0809160008430B0F4809160001E
:100190008F5F8093600010C080916000843060F0B9
:1001A000109260008DE290E0909364008093630071
:1001B0001ABE8BB780648BBF9F918F910F900FBE3B
:1001C0000F901F9018951F920F920FB60F92112447
:1001D0008F938BB78F7B8BBF10926400109263005C
:1001E0008F910F900FBE0F901F901895F894FFCF2E
:0201F000040009
:00000001FF
