:1000000009C021C0CDC081C01EC01DC01CC01BC006
:1000100097C019C011241FBECFE9CDBF10E0A0E6E4
:10002000B0E0E6ECF1E002C005900D92A236B10717
:10003000D9F720E0A2E6B0E001C01D92A336B207D6
:10004000E1F74ED0BEC0DCCFF89417BA18BAB99811
:10005000C19A8FB583688FBD83B7846083BF16BE96
:1000600089B7826089BF85B7806385BFA99A14BEAE
:1000700088E181BD81E681BD78940895B89A86B7FC
:100080008F3F61F086B78F5F86BF8FEF9CE7019748
:10009000F1F700C0000086B78F3FA1F7089586B73B
:1000A000882361F086B7815086BF8FEF9CE7019768
:1000B000F1F700C0000086B78111F4CFB898089519
:1000C000109261008AB78F7D8ABF8BB780628BBF29
:1000D00085B7806285BF889585B78F7D85BF089578
:1000E000B3DFEEDF809161008D3310F4C7DF02C013
:1000F000D6DFE6DF809161008630A0F38AB78F7D7E
:100100008ABF8BB780628BBFEDCF1F920F920FB665
:100110000F9211248F93809162008F5F8B3718F4B8
:100120008093620007C010926200809161008F5F2F
:10013000809361008F910F900FBE0F901F901895C4
:100140001F920F920FB60F9211248F9381B5806486
:1001500081BD86B781111EC084E680936100B29B89
:100160000AC0809160008A30A8F4809160008F5F9F
:10017000809360000FC0809160008A3058F0109228
:1001800060008DE2809361008AB78F7D8ABF8BB754
:1001900080628BBF8F910F900FBE0F901F901895AC
:1001A0001F920F920FB60F9211248F938BB78F7DF2
:1001B0008BBF109261008F910F900FBE0F901F9018
:0601C0001895F894FFCF32
:0201C6000A64C9
:00000001FF
