S01400004F726967616D694C696768742E7372656350
S113000009C05AC120C0E9C01EC01DC01CC01BC00D
S11300100EC119C011241FBECFE9CDBF10E0A0E668
S1130020B0E0E2EEF2E002C005900D92A436B10712
S1130030D9F720E0A4E6B0E001C01D92AA36B207C9
S1130040E1F79AD04CC1DCCFF89417BA18BAB99832
S1130050C19A8FB583688FBD83B7846083BF89B726
S1130060826089BF85B7806385BF16BE14BE88E1F0
S113007081BD81E681BD78940895B19B0FC081E074
S113008090E00090660002C0880F991F0A94E2F77E
S113009090916500892B809365000FC081E090E00A
S11300A00090660002C0880F991F0A94E2F78095B9
S11300B09091650089238093650080916600873064
S11300C020F48F5F8093660002C0109266006091F6
S11300D0650070E080E090E040E09B01082E02C0E3
S11300E0359527950A94E2F72170420F01968830DE
S11300F0910599F780916100882321F0433020F025
S113010080E00895473028F091E0892780936100CA
S113011081E0089510926800109267008BB78064A4
S11301208BBF85B7806285BF889585B78F7D85BF76
S11301300895B89A86B78F3F61F086B78F5F86BF00
S11301408FEF9CE70197F1F700C0000086B78F3F5F
S1130150A1F7089586B7882361F086B7815086BFDA
S11301608FEF9CE70197F1F700C0000086B781117B
S1130170F4CFB898CFDF089567DF78948FE697E1DE
S11301800197F1F700C0000078DF90916900890FB2
S11301908093690080916900873060F01092690053
S11301A0109268001092670086B7882311F0D2DF9E
S11301B001C0BFDF80916700909168008937910585
S11301C008F0C8DF809162008823C1F286B78111EC
S11301D0D5CF109262009EDFD1CF1F920F920FB63F
S11301E00F9211248F939F93809164008F5F8B37BC
S11301F018F48093640014C0109264008091670026
S113020090916800019690936800809367008091B4
S11302106900882329F080916900815080936900E6
S11302209F918F910F900FBE0F901F9018951F9262
S11302300F920FB60F9211242F933F934F935F9316
S11302406F937F938F939F93AF93BF93EF93FF939A
S113025081B5806481BD81E080936200B29B08C057
S1130260809160008632B8F48F5F8093600013C081
S113027080916000863278F086B781110CC01092AC
S1130280600057DF8EE690E09093680080936700EB
S11302908BB780648BBFFF91EF91BF91AF919F911A
S11302A08F917F916F915F914F913F912F910F901B
S11302B00FBE0F901F9018951F920F920FB60F92BA
S11302C011248F938BB78F7B8BBF10926800109291
S11302D067008F910F900FBE0F901F901895F894A0
S10502E0FFCF4A
S10702E226010100EC
S9030000FC
