:1000000009C021C0EDC084C01EC01DC01CC01BC0E3
:10001000A0C019C011241FBECFE9CDBF10E0A0E6DB
:10002000B0E0EAE0F2E002C005900D92A436B1071C
:10003000D9F720E0A4E6B0E001C01D92A536B207D2
:10004000E1F74ED0E0C0DCCFF89417BA18BAB998EF
:10005000C19A8FB583688FBD83B7846083BF16BE96
:1000600089B7826089BF85B7806385BFA99A14BEAE
:1000700088E181BD81E681BD78940895B89A86B7FC
:100080008F3F51F086B78F5F86BF8FEF9CE7019758
:10009000F1F700C00000F3CF089586B7882351F030
:1000A00086B7815086BF8FEF9CE70197F1F700C0BC
:1000B0000000F3CFB89808958AB78F7D8ABF8BB7B9
:1000C00080628BBF08951092620010926100F4DF8D
:1000D00085B7806285BF889585B78F7D85BF089578
:1000E000B3DFF1DF8091610090916200CD9708F459
:1000F000C5DF8091610090916200069708F0DCDF17
:100100008091610090916200CD9760F3C6DFE9CFE6
:100110001F920F920FB60F9211248F939F9380918D
:1001200064008F5F8B3718F4809364000BC01092CB
:10013000640080916100909162000196909362004A
:10014000809361009F918F910F900FBE0F901F9031
:1001500018951F920F920FB60F9211242F933F9371
:100160004F935F936F937F938F939F93AF93BF93BF
:10017000EF93FF9381B5806481BD86B781111FC065
:1001800084E690E09093620080936100B29B0AC085
:10019000809160008A3098F4809160008F5F809336
:1001A00060000DC0809160008A3048F010926000BD
:1001B0008DE290E090936200809361007DDFFF917B
:1001C000EF91BF91AF919F918F917F916F915F91CF
:1001D0004F913F912F910F900FBE0F901F90189548
:1001E0001F920F920FB60F9211248F938BB78F7DB2
:1001F0008BBF10926200109261008F910F900FBE22
:0A0200000F901F901895F894FFCF9F
:04020A000A64000082
:00000001FF
