:1000000009C04CC120C0DFC01EC01DC01CC01BC029
:1000100004C119C011241FBECFE9CDBF10E0A0E676
:10002000B0E0E6ECF2E002C005900D92A436B10714
:10003000D9F720E0A4E6B0E001C01D92AA36B207CD
:10004000E1F790D03EC1DCCFF89417BA18BAB9984E
:10005000C19A8FB583688FBD83B7846083BF89B72A
:10006000826089BF85B7806385BF16BE14BE88E1F4
:1000700081BD81E681BD789408952091660030911C
:100080006500B19B0BC041E050E0022E01C0440F5F
:100090000A94EAF7432B409365000BC081E090E09F
:1000A000022E01C0880F0A94EAF78095832380937B
:1000B0006500273020F42F5F2093660002C0109265
:1000C00066006091650070E020E030E090E0AB01F8
:1000D000022E02C0559547950A94E2F74170940F9D
:1000E0002F5F3F4F2830310591F7809161008823C1
:1000F00021F0933020F080E00895973028F091E0CF
:1001000089278093610081E0089510926800109221
:1001100067008BB780648BBF85B7806285BF889589
:1001200085B78F7D85BF0895B89A86B78F3F51F008
:1001300086B78F5F86BF8FEF9CE70197F1F700C00E
:100140000000F3CF089586B7882351F086B7815019
:1001500086BF8FEF9CE70197F1F700C00000F3CF57
:10016000B898D3CF71DF78948FE697E10197F1F7D4
:1001700000C0000082DF90916900890F80936900C0
:1001800080916900873060F01092690010926800D9
:100190001092670086B7882311F0D5DF01C0C4DF55
:1001A00080916700909168008937910508F0CBDF56
:1001B000809162008823C1F286B78111D5CF109259
:1001C0006200A3DFD1CF1F920F920FB60F921124BE
:1001D0008F939F93809164008F5F8B3718F4809387
:1001E000640014C0109264008091670090916800D0
:1001F000019690936800809367008091690088233E
:1002000029F0809169008150809369009F918F91BE
:100210000F900FBE0F901F9018951F920F920FB660
:100220000F9211242F933F934F935F936F937F937C
:100230008F939F93AF93BF93EF93FF9381B58064A8
:1002400081BD81E080936200B29B08C08091600014
:100250008A3098F48F5F809360000FC086B7811159
:100260000CC01092600060DF8EE690E09093680012
:10027000809367008BB780648BBFFF91EF91BF9134
:10028000AF919F918F917F916F915F914F913F912E
:100290002F910F900FBE0F901F9018951F920F92E5
:1002A0000FB60F9211248F938BB78F7B8BBF109259
:1002B0006800109267008F910F900FBE0F901F90F3
:0602C0001895F894FFCF31
:0402C6000A01010028
:00000001FF
