S01400004F726967616D694C696768742E7372656350
S113000009C0E5C020C07CC01EC01DC01CC01BC0F0
S113001098C019C011241FBECFE9CDBF10E0A0E6DF
S1130020B0E0E8EFF1E002C005900D92A236B1070E
S1130030D9F720E0A2E6B0E001C01D92A536B207D0
S1130040E1F748D0D7C0DCCFF89417BA18BAB998FA
S1130050C19A8FB583688FBD83B7846083BF16BE92
S113006089B7826089BF85B7806385BF14BE88E184
S113007081BD81E681BD7894089510926400109248
S113008063008BB780648BBF85B7806285BF88951A
S113009085B78F7D85BF0895B89A86B78F3F51F095
S11300A086B78F5F86BF8FEF9CE70197F1F700C09B
S11300B00000F3CF089586B7882351F086B78150A6
S11300C086BF8FEF9CE70197F1F700C00000F3CFE4
S11300D0B898D3CFB9DF7894D0DFDEDF80916300A6
S11300E090916400069720F08BB780648BBFF5CFA6
S11300F08091630090916400CD9778F3DCDFECCFBE
S11301001F920F920FB60F9211248F939F93809199
S113011062008F5F8B3718F4809362000BC01092DB
S11301206200809163009091640001969093640052
S1130130809363009F918F910F900FBE0F901F903B
S113014018951F920F920FB60F9211242F933F937D
S11301504F935F936F937F938F939F93AF93BF93CB
S1130160EF93FF9381B5806481BD86B781111EC072
S113017084E690E090936400809363008091600033
S1130180B29B06C0863290F48F5F809360000EC0ED
S1130190863260F0109260007FDF8DE290E09093F1
S11301A06400809363008BB780648BBFFF91EF91F1
S11301B0BF91AF919F918F917F916F915F914F917B
S11301C03F912F910F900FBE0F901F9018951F9283
S11301D00F920FB60F9211248F938BB78F7B8BBF27
S11301E010926400109263008F910F900FBE0F90D5
S10B01F01F901895F894FFCF4D
S10501F82600DB
S9030000FC
